{"abi":[{"type":"constructor","inputs":[{"name":"electionName_","type":"string","internalType":"string"},{"name":"candidateNames","type":"string[]","internalType":"string[]"},{"name":"votingDurationSeconds","type":"uint256","internalType":"uint256"},{"name":"electionId_","type":"uint256","internalType":"uint256"},{"name":"initialOwner","type":"address","internalType":"address"}],"stateMutability":"nonpayable"},{"type":"function","name":"candidateIdToVotes","inputs":[{"name":"","type":"uint256","internalType":"uint256"}],"outputs":[{"name":"","type":"uint256","internalType":"uint256"}],"stateMutability":"view"},{"type":"function","name":"candidateName","inputs":[{"name":"candidateId","type":"uint256","internalType":"uint256"}],"outputs":[{"name":"","type":"string","internalType":"string"}],"stateMutability":"view"},{"type":"function","name":"candidatesLength","inputs":[],"outputs":[{"name":"","type":"uint256","internalType":"uint256"}],"stateMutability":"view"},{"type":"function","name":"eip712Domain","inputs":[],"outputs":[{"name":"fields","type":"bytes1","internalType":"bytes1"},{"name":"name","type":"string","internalType":"string"},{"name":"version","type":"string","internalType":"string"},{"name":"chainId","type":"uint256","internalType":"uint256"},{"name":"verifyingContract","type":"address","internalType":"address"},{"name":"salt","type":"bytes32","internalType":"bytes32"},{"name":"extensions","type":"uint256[]","internalType":"uint256[]"}],"stateMutability":"view"},{"type":"function","name":"electionId","inputs":[],"outputs":[{"name":"","type":"uint256","internalType":"uint256"}],"stateMutability":"view"},{"type":"function","name":"electionName","inputs":[],"outputs":[{"name":"","type":"string","internalType":"string"}],"stateMutability":"view"},{"type":"function","name":"finalizeWinner","inputs":[],"outputs":[],"stateMutability":"nonpayable"},{"type":"function","name":"finalized","inputs":[],"outputs":[{"name":"","type":"bool","internalType":"bool"}],"stateMutability":"view"},{"type":"function","name":"hasVotedForElection","inputs":[{"name":"","type":"uint256","internalType":"uint256"},{"name":"","type":"address","internalType":"address"}],"outputs":[{"name":"","type":"bool","internalType":"bool"}],"stateMutability":"view"},{"type":"function","name":"hashVote","inputs":[{"name":"vote","type":"tuple","internalType":"struct EIP712Voting.Vote","components":[{"name":"voter","type":"address","internalType":"address"},{"name":"candidateId","type":"uint256","internalType":"uint256"},{"name":"electionId","type":"uint256","internalType":"uint256"},{"name":"nonce","type":"uint256","internalType":"uint256"},{"name":"deadline","type":"uint256","internalType":"uint256"}]}],"outputs":[{"name":"","type":"bytes32","internalType":"bytes32"}],"stateMutability":"view"},{"type":"function","name":"owner","inputs":[],"outputs":[{"name":"","type":"address","internalType":"address"}],"stateMutability":"view"},{"type":"function","name":"renounceOwnership","inputs":[],"outputs":[],"stateMutability":"nonpayable"},{"type":"function","name":"setVotingEnd","inputs":[{"name":"newVotingEnd","type":"uint256","internalType":"uint256"}],"outputs":[],"stateMutability":"nonpayable"},{"type":"function","name":"submitVote","inputs":[{"name":"vote","type":"tuple","internalType":"struct EIP712Voting.Vote","components":[{"name":"voter","type":"address","internalType":"address"},{"name":"candidateId","type":"uint256","internalType":"uint256"},{"name":"electionId","type":"uint256","internalType":"uint256"},{"name":"nonce","type":"uint256","internalType":"uint256"},{"name":"deadline","type":"uint256","internalType":"uint256"}]},{"name":"signature","type":"bytes","internalType":"bytes"}],"outputs":[],"stateMutability":"nonpayable"},{"type":"function","name":"transferOwnership","inputs":[{"name":"newOwner","type":"address","internalType":"address"}],"outputs":[],"stateMutability":"nonpayable"},{"type":"function","name":"voterNonces","inputs":[{"name":"","type":"address","internalType":"address"}],"outputs":[{"name":"","type":"uint256","internalType":"uint256"}],"stateMutability":"view"},{"type":"function","name":"votingEnd","inputs":[],"outputs":[{"name":"","type":"uint256","internalType":"uint256"}],"stateMutability":"view"},{"type":"function","name":"votingStart","inputs":[],"outputs":[{"name":"","type":"uint256","internalType":"uint256"}],"stateMutability":"view"},{"type":"function","name":"winningCandidateId","inputs":[],"outputs":[{"name":"","type":"uint256","internalType":"uint256"}],"stateMutability":"view"},{"type":"event","name":"EIP712DomainChanged","inputs":[],"anonymous":false},{"type":"event","name":"OwnershipTransferred","inputs":[{"name":"previousOwner","type":"address","indexed":true,"internalType":"address"},{"name":"newOwner","type":"address","indexed":true,"internalType":"address"}],"anonymous":false},{"type":"event","name":"VoteAccepted","inputs":[{"name":"voter","type":"address","indexed":true,"internalType":"address"},{"name":"electionId","type":"uint256","indexed":true,"internalType":"uint256"},{"name":"candidateId","type":"uint256","indexed":true,"internalType":"uint256"}],"anonymous":false},{"type":"event","name":"VotingEndUpdated","inputs":[{"name":"oldVotingEnd","type":"uint256","indexed":false,"internalType":"uint256"},{"name":"newVotingEnd","type":"uint256","indexed":false,"internalType":"uint256"}],"anonymous":false},{"type":"event","name":"WinnerFinalized","inputs":[{"name":"electionId","type":"uint256","indexed":true,"internalType":"uint256"},{"name":"winningCandidateId","type":"uint256","indexed":true,"internalType":"uint256"},{"name":"votes","type":"uint256","indexed":false,"internalType":"uint256"}],"anonymous":false},{"type":"error","name":"ECDSAInvalidSignature","inputs":[]},{"type":"error","name":"ECDSAInvalidSignatureLength","inputs":[{"name":"length","type":"uint256","internalType":"uint256"}]},{"type":"error","name":"ECDSAInvalidSignatureS","inputs":[{"name":"s","type":"bytes32","internalType":"bytes32"}]},{"type":"error","name":"InvalidShortString","inputs":[]},{"type":"error","name":"OwnableInvalidOwner","inputs":[{"name":"owner","type":"address","internalType":"address"}]},{"type":"error","name":"OwnableUnauthorizedAccount","inputs":[{"name":"account","type":"address","internalType":"address"}]},{"type":"error","name":"StringTooLong","inputs":[{"name":"str","type":"string","internalType":"string"}]}],"bytecode":{"object":"0x6101a060405234801562000011575f80fd5b50604051620034113803806200341183398181016040528101906200003791906200086e565b80856040518060400160405280600181526020017f3100000000000000000000000000000000000000000000000000000000000000815250620000845f836200028c60201b90919060201c565b6101208181525050620000a26001826200028c60201b90919060201c565b6101408181525050818051906020012060e08181525050808051906020012061010081815250504660a08181525050620000e1620002e160201b60201c565b608081815250503073ffffffffffffffffffffffffffffffffffffffff1660c08173ffffffffffffffffffffffffffffffffffffffff168152505050505f73ffffffffffffffffffffffffffffffffffffffff168173ffffffffffffffffffffffffffffffffffffffff160362000191575f6040517f1e4fbdf700000000000000000000000000000000000000000000000000000000815260040162000188919062000941565b60405180910390fd5b620001a2816200033d60201b60201c565b50600284511015620001eb576040517f08c379a0000000000000000000000000000000000000000000000000000000008152600401620001e290620009ba565b60405180910390fd5b5f831162000230576040517f08c379a0000000000000000000000000000000000000000000000000000000008152600401620002279062000a28565b60405180910390fd5b846003908162000241919062000c76565b5083600490805190602001906200025a92919062000473565b50426101608181525050824262000272919062000d87565b600581905550816101808181525050505050505062000f47565b5f602083511015620002b157620002a9836200040060201b60201c565b9050620002db565b82620002c3836200046a60201b60201c565b5f019081620002d3919062000c76565b5060ff5f1b90505b92915050565b5f7f8b73c3c69bb8fe3d512ecc4cf759cc79239f7b179b0ffacaa9a75d522b39400f60e0516101005146306040516020016200032295949392919062000dec565b60405160208183030381529060405280519060200120905090565b5f60025f9054906101000a900473ffffffffffffffffffffffffffffffffffffffff1690508160025f6101000a81548173ffffffffffffffffffffffffffffffffffffffff021916908373ffffffffffffffffffffffffffffffffffffffff1602179055508173ffffffffffffffffffffffffffffffffffffffff168173ffffffffffffffffffffffffffffffffffffffff167f8be0079c531659141344cd1fd0a4f28419497f9722a3daafe3b4186f6b6457e060405160405180910390a35050565b5f80829050601f815111156200044f57826040517f305a27a900000000000000000000000000000000000000000000000000000000815260040162000446919062000e87565b60405180910390fd5b8051816200045d9062000ed8565b5f1c175f1b915050919050565b5f819050919050565b828054828255905f5260205f20908101928215620004be579160200282015b82811115620004bd578251829081620004ac919062000c76565b509160200191906001019062000492565b5b509050620004cd9190620004d1565b5090565b5b80821115620004f4575f8181620004ea9190620004f8565b50600101620004d2565b5090565b508054620005069062000a7f565b5f825580601f1062000519575062000538565b601f0160209004905f5260205f20908101906200053791906200053b565b5b50565b5b8082111562000554575f815f9055506001016200053c565b5090565b5f604051905090565b5f80fd5b5f80fd5b5f80fd5b5f80fd5b5f601f19601f8301169050919050565b7f4e487b71000000000000000000000000000000000000000000000000000000005f52604160045260245ffd5b620005b98262000571565b810181811067ffffffffffffffff82111715620005db57620005da62000581565b5b80604052505050565b5f620005ef62000558565b9050620005fd8282620005ae565b919050565b5f67ffffffffffffffff8211156200061f576200061e62000581565b5b6200062a8262000571565b9050602081019050919050565b5f5b838110156200065657808201518184015260208101905062000639565b5f8484015250505050565b5f62000677620006718462000602565b620005e4565b9050828152602081018484840111156200069657620006956200056d565b5b620006a384828562000637565b509392505050565b5f82601f830112620006c257620006c162000569565b5b8151620006d484826020860162000661565b91505092915050565b5f67ffffffffffffffff821115620006fa57620006f962000581565b5b602082029050602081019050919050565b5f80fd5b5f620007256200071f84620006dd565b620005e4565b905080838252602082019050602084028301858111156200074b576200074a6200070b565b5b835b818110156200079957805167ffffffffffffffff81111562000774576200077362000569565b5b808601620007838982620006ab565b855260208501945050506020810190506200074d565b5050509392505050565b5f82601f830112620007ba57620007b962000569565b5b8151620007cc8482602086016200070f565b91505092915050565b5f819050919050565b620007e981620007d5565b8114620007f4575f80fd5b50565b5f815190506200080781620007de565b92915050565b5f73ffffffffffffffffffffffffffffffffffffffff82169050919050565b5f62000838826200080d565b9050919050565b6200084a816200082c565b811462000855575f80fd5b50565b5f8151905062000868816200083f565b92915050565b5f805f805f60a086880312156200088a576200088962000561565b5b5f86015167ffffffffffffffff811115620008aa57620008a962000565565b5b620008b888828901620006ab565b955050602086015167ffffffffffffffff811115620008dc57620008db62000565565b5b620008ea88828901620007a3565b9450506040620008fd88828901620007f7565b93505060606200091088828901620007f7565b9250506080620009238882890162000858565b9150509295509295909350565b6200093b816200082c565b82525050565b5f602082019050620009565f83018462000930565b92915050565b5f82825260208201905092915050565b7f6e656564203e3d20322063616e646964617465730000000000000000000000005f82015250565b5f620009a26014836200095c565b9150620009af826200096c565b602082019050919050565b5f6020820190508181035f830152620009d38162000994565b9050919050565b7f696e76616c6964206475726174696f6e000000000000000000000000000000005f82015250565b5f62000a106010836200095c565b915062000a1d82620009da565b602082019050919050565b5f6020820190508181035f83015262000a418162000a02565b9050919050565b5f81519050919050565b7f4e487b71000000000000000000000000000000000000000000000000000000005f52602260045260245ffd5b5f600282049050600182168062000a9757607f821691505b60208210810362000aad5762000aac62000a52565b5b50919050565b5f819050815f5260205f209050919050565b5f6020601f8301049050919050565b5f82821b905092915050565b5f6008830262000b117fffffffffffffffffffffffffffffffffffffffffffffffffffffffffffffffff8262000ad4565b62000b1d868362000ad4565b95508019841693508086168417925050509392505050565b5f819050919050565b5f62000b5e62000b5862000b5284620007d5565b62000b35565b620007d5565b9050919050565b5f819050919050565b62000b798362000b3e565b62000b9162000b888262000b65565b84845462000ae0565b825550505050565b5f90565b62000ba762000b99565b62000bb481848462000b6e565b505050565b5b8181101562000bdb5762000bcf5f8262000b9d565b60018101905062000bba565b5050565b601f82111562000c2a5762000bf48162000ab3565b62000bff8462000ac5565b8101602085101562000c0f578190505b62000c2762000c1e8562000ac5565b83018262000bb9565b50505b505050565b5f82821c905092915050565b5f62000c4c5f198460080262000c2f565b1980831691505092915050565b5f62000c66838362000c3b565b9150826002028217905092915050565b62000c818262000a48565b67ffffffffffffffff81111562000c9d5762000c9c62000581565b5b62000ca9825462000a7f565b62000cb682828562000bdf565b5f60209050601f83116001811462000cec575f841562000cd7578287015190505b62000ce3858262000c59565b86555062000d52565b601f19841662000cfc8662000ab3565b5f5b8281101562000d255784890151825560018201915060208501945060208101905062000cfe565b8683101562000d45578489015162000d41601f89168262000c3b565b8355505b6001600288020188555050505b505050505050565b7f4e487b71000000000000000000000000000000000000000000000000000000005f52601160045260245ffd5b5f62000d9382620007d5565b915062000da083620007d5565b925082820190508082111562000dbb5762000dba62000d5a565b5b92915050565b5f819050919050565b62000dd58162000dc1565b82525050565b62000de681620007d5565b82525050565b5f60a08201905062000e015f83018862000dca565b62000e10602083018762000dca565b62000e1f604083018662000dca565b62000e2e606083018562000ddb565b62000e3d608083018462000930565b9695505050505050565b5f62000e538262000a48565b62000e5f81856200095c565b935062000e7181856020860162000637565b62000e7c8162000571565b840191505092915050565b5f6020820190508181035f83015262000ea1818462000e47565b905092915050565b5f81519050919050565b5f819050602082019050919050565b5f62000ecf825162000dc1565b80915050919050565b5f62000ee48262000ea9565b8262000ef08462000eb3565b905062000efd8162000ec2565b9250602082101562000f405762000f3b7fffffffffffffffffffffffffffffffffffffffffffffffffffffffffffffffff8360200360080262000ad4565b831692505b5050919050565b60805160a05160c05160e051610100516101205161014051610160516101805161243a62000fd75f395f81816103910152818161077e01528181610a1601528181610ae20152610e8701525f81816103b50152818161068f0152610cbe01525f61118f01525f61115401525f61161c01525f6115fb01525f6112bb01525f61131101525f61133a015261243a5ff3fe608060405234801561000f575f80fd5b506004361061011f575f3560e01c806385e8e7a7116100ab578063b3f05b971161006f578063b3f05b97146102eb578063ccd0ce0c14610309578063d7fae4fa14610313578063d8cb076b14610343578063f2fde38b146103735761011f565b806385e8e7a7146102475780638c36ba2b146102655780638da5cb5b146102955780639b182165146102b3578063abff8b24146102cf5761011f565b80633195de15116100f25780633195de15146101ad578063715018a6146101dd578063773b7f65146101e757806384b0196e1461020557806385a38635146102295761011f565b8063051364d414610123578063101158af146101415780631eb855381461015f578063300062811461017d575b5f80fd5b61012b61038f565b60405161013891906117b9565b60405180910390f35b6101496103b3565b60405161015691906117b9565b60405180910390f35b6101676103d7565b60405161017491906117b9565b60405180910390f35b61019760048036038101906101929190611804565b6103dd565b6040516101a491906118b9565b60405180910390f35b6101c760048036038101906101c29190611933565b6104d0565b6040516101d4919061198b565b60405180910390f35b6101e56104fa565b005b6101ef61050d565b6040516101fc91906117b9565b60405180910390f35b61020d610519565b6040516102209796959493929190611abc565b60405180910390f35b6102316105be565b60405161023e91906117b9565b60405180910390f35b61024f6105c4565b60405161025c91906118b9565b60405180910390f35b61027f600480360381019061027a9190611804565b610650565b60405161028c91906117b9565b60405180910390f35b61029d610665565b6040516102aa9190611b3e565b60405180910390f35b6102cd60048036038101906102c89190611bda565b61068d565b005b6102e960048036038101906102e49190611804565b610c65565b005b6102f3610d68565b604051610300919061198b565b60405180910390f35b610311610d7a565b005b61032d60048036038101906103289190611c37565b610ee2565b60405161033a9190611c62565b60405180910390f35b61035d60048036038101906103589190611c7b565b610f69565b60405161036a91906117b9565b60405180910390f35b61038d60048036038101906103889190611c7b565b610f7e565b005b7f000000000000000000000000000000000000000000000000000000000000000081565b7f000000000000000000000000000000000000000000000000000000000000000081565b600a5481565b60606004805490508210610426576040517f08c379a000000000000000000000000000000000000000000000000000000000815260040161041d90611cf0565b60405180910390fd5b6004828154811061043a57610439611d0e565b5b905f5260205f2001805461044d90611d68565b80601f016020809104026020016040519081016040528092919081815260200182805461047990611d68565b80156104c45780601f1061049b576101008083540402835291602001916104c4565b820191905f5260205f20905b8154815290600101906020018083116104a757829003601f168201915b50505050509050919050565b6007602052815f5260405f20602052805f5260405f205f915091509054906101000a900460ff1681565b610502611002565b61050b5f611089565b565b5f600480549050905090565b5f6060805f805f606061052a61114c565b610532611186565b46305f801b5f67ffffffffffffffff81111561055157610550611d98565b5b60405190808252806020026020018201604052801561057f5781602001602082028036833780820191505090505b507f0f00000000000000000000000000000000000000000000000000000000000000959493929190965096509650965096509650965090919293949596565b60055481565b600380546105d190611d68565b80601f01602080910402602001604051908101604052809291908181526020018280546105fd90611d68565b80156106485780601f1061061f57610100808354040283529160200191610648565b820191905f5260205f20905b81548152906001019060200180831161062b57829003601f168201915b505050505081565b6006602052805f5260405f205f915090505481565b5f60025f9054906101000a900473ffffffffffffffffffffffffffffffffffffffff16905090565b7f00000000000000000000000000000000000000000000000000000000000000004210156106f0576040517f08c379a00000000000000000000000000000000000000000000000000000000081526004016106e790611e0f565b60405180910390fd5b600554421115610735576040517f08c379a000000000000000000000000000000000000000000000000000000000815260040161072c90611e77565b60405180910390fd5b428360800135101561077c576040517f08c379a000000000000000000000000000000000000000000000000000000000815260040161077390611edf565b60405180910390fd5b7f00000000000000000000000000000000000000000000000000000000000000008360400135146107e2576040517f08c379a00000000000000000000000000000000000000000000000000000000081526004016107d990611f47565b60405180910390fd5b60048054905083602001351061082d576040517f08c379a000000000000000000000000000000000000000000000000000000000815260040161082490611cf0565b60405180910390fd5b60085f845f0160208101906108429190611c7b565b73ffffffffffffffffffffffffffffffffffffffff1673ffffffffffffffffffffffffffffffffffffffff1681526020019081526020015f20548360600135146108c1576040517f08c379a00000000000000000000000000000000000000000000000000000000081526004016108b890611faf565b60405180910390fd5b5f7f58556a46fbcf81174bc859fc9a635107e4c22f94dc76326a01a13d3a55b2449b845f0160208101906108f59190611c7b565b856020013586604001358760600135886080013560405160200161091e96959493929190611fcd565b6040516020818303038152906040528051906020012090505f610940826111c1565b90505f6109908286868080601f0160208091040260200160405190810160405280939291908181526020018383808284375f81840152601f19601f820116905080830192505050505050506111da565b9050855f0160208101906109a49190611c7b565b73ffffffffffffffffffffffffffffffffffffffff168173ffffffffffffffffffffffffffffffffffffffff1614610a11576040517f08c379a0000000000000000000000000000000000000000000000000000000008152600401610a0890612076565b60405180910390fd5b60075f7f000000000000000000000000000000000000000000000000000000000000000081526020019081526020015f205f875f016020810190610a559190611c7b565b73ffffffffffffffffffffffffffffffffffffffff1673ffffffffffffffffffffffffffffffffffffffff1681526020019081526020015f205f9054906101000a900460ff1615610adb576040517f08c379a0000000000000000000000000000000000000000000000000000000008152600401610ad2906120de565b60405180910390fd5b600160075f7f000000000000000000000000000000000000000000000000000000000000000081526020019081526020015f205f885f016020810190610b219190611c7b565b73ffffffffffffffffffffffffffffffffffffffff1673ffffffffffffffffffffffffffffffffffffffff1681526020019081526020015f205f6101000a81548160ff021916908315150217905550600160065f886020013581526020019081526020015f205f828254610b959190612129565b9250508190555060018660600135610bad9190612129565b60085f885f016020810190610bc29190611c7b565b73ffffffffffffffffffffffffffffffffffffffff1673ffffffffffffffffffffffffffffffffffffffff1681526020019081526020015f208190555085602001358660400135875f016020810190610c1b9190611c7b565b73ffffffffffffffffffffffffffffffffffffffff167f8fd2cad44d673d9c0029b36de18f0bb5cce9cf20f9aea743d3cfc000e9fee9ad60405160405180910390a4505050505050565b610c6d611002565b60095f9054906101000a900460ff1615610cbc576040517f08c379a0000000000000000000000000000000000000000000000000000000008152600401610cb3906121a6565b60405180910390fd5b7f00000000000000000000000000000000000000000000000000000000000000008111610d1e576040517f08c379a0000000000000000000000000000000000000000000000000000000008152600401610d1590612234565b60405180910390fd5b5f6005549050816005819055507f561e3cc9921f6dd8405f4032e08d8b4e297aea622f79dddd89f3e415826bd65a8183604051610d5c929190612252565b60405180910390a15050565b60095f9054906101000a900460ff1681565b610d82611002565b6005544211610dc6576040517f08c379a0000000000000000000000000000000000000000000000000000000008152600401610dbd906122c3565b60405180910390fd5b60095f9054906101000a900460ff1615610e15576040517f08c379a0000000000000000000000000000000000000000000000000000000008152600401610e0c906121a6565b60405180910390fd5b5f60048054905090505f805f5b83811015610e62575f60065f8381526020019081526020015f2054905082811115610e4e578092508193505b508080610e5a906122e1565b915050610e22565b5081600a81905550600160095f6101000a81548160ff021916908315150217905550817f00000000000000000000000000000000000000000000000000000000000000007f051f919732f5330240073fab38f0d82b290cf7342adfa5bc65730dfc1323ea0483604051610ed591906117b9565b60405180910390a3505050565b5f807f58556a46fbcf81174bc859fc9a635107e4c22f94dc76326a01a13d3a55b2449b835f016020810190610f179190611c7b565b8460200135856040013586606001358760800135604051602001610f4096959493929190611fcd565b604051602081830303815290604052805190602001209050610f61816111c1565b915050919050565b6008602052805f5260405f205f915090505481565b610f86611002565b5f73ffffffffffffffffffffffffffffffffffffffff168173ffffffffffffffffffffffffffffffffffffffff1603610ff6575f6040517f1e4fbdf7000000000000000000000000000000000000000000000000000000008152600401610fed9190611b3e565b60405180910390fd5b610fff81611089565b50565b61100a611204565b73ffffffffffffffffffffffffffffffffffffffff16611028610665565b73ffffffffffffffffffffffffffffffffffffffff16146110875761104b611204565b6040517f118cdaa700000000000000000000000000000000000000000000000000000000815260040161107e9190611b3e565b60405180910390fd5b565b5f60025f9054906101000a900473ffffffffffffffffffffffffffffffffffffffff1690508160025f6101000a81548173ffffffffffffffffffffffffffffffffffffffff021916908373ffffffffffffffffffffffffffffffffffffffff1602179055508173ffffffffffffffffffffffffffffffffffffffff168173ffffffffffffffffffffffffffffffffffffffff167f8be0079c531659141344cd1fd0a4f28419497f9722a3daafe3b4186f6b6457e060405160405180910390a35050565b60606111815f7f000000000000000000000000000000000000000000000000000000000000000061120b90919063ffffffff16565b905090565b60606111bc60017f000000000000000000000000000000000000000000000000000000000000000061120b90919063ffffffff16565b905090565b5f6111d36111cd6112b8565b8361136e565b9050919050565b5f805f806111e886866113ae565b9250925092506111f88282611403565b82935050505092915050565b5f33905090565b606060ff5f1b83146112275761122083611565565b90506112b2565b81805461123390611d68565b80601f016020809104026020016040519081016040528092919081815260200182805461125f90611d68565b80156112aa5780601f10611281576101008083540402835291602001916112aa565b820191905f5260205f20905b81548152906001019060200180831161128d57829003601f168201915b505050505090505b92915050565b5f7f000000000000000000000000000000000000000000000000000000000000000073ffffffffffffffffffffffffffffffffffffffff163073ffffffffffffffffffffffffffffffffffffffff1614801561133357507f000000000000000000000000000000000000000000000000000000000000000046145b15611360577f0000000000000000000000000000000000000000000000000000000000000000905061136b565b6113686115d7565b90505b90565b5f6040517f190100000000000000000000000000000000000000000000000000000000000081528360028201528260228201526042812091505092915050565b5f805f60418451036113ee575f805f602087015192506040870151915060608701515f1a90506113e08882858561166c565b9550955095505050506113fc565b5f600285515f1b9250925092505b9250925092565b5f600381111561141657611415612328565b5b82600381111561142957611428612328565b5b0315611561576001600381111561144357611442612328565b5b82600381111561145657611455612328565b5b0361148d576040517ff645eedf00000000000000000000000000000000000000000000000000000000815260040160405180910390fd5b600260038111156114a1576114a0612328565b5b8260038111156114b4576114b3612328565b5b036114f857805f1c6040517ffce698f70000000000000000000000000000000000000000000000000000000081526004016114ef91906117b9565b60405180910390fd5b60038081111561150b5761150a612328565b5b82600381111561151e5761151d612328565b5b0361156057806040517fd78bce0c0000000000000000000000000000000000000000000000000000000081526004016115579190611c62565b60405180910390fd5b5b5050565b60605f61157183611753565b90505f602067ffffffffffffffff81111561158f5761158e611d98565b5b6040519080825280601f01601f1916602001820160405280156115c15781602001600182028036833780820191505090505b5090508181528360208201528092505050919050565b5f7f8b73c3c69bb8fe3d512ecc4cf759cc79239f7b179b0ffacaa9a75d522b39400f7f00000000000000000000000000000000000000000000000000000000000000007f00000000000000000000000000000000000000000000000000000000000000004630604051602001611651959493929190612355565b60405160208183030381529060405280519060200120905090565b5f805f7f7fffffffffffffffffffffffffffffff5d576e7357a4501ddfe92f46681b20a0845f1c11156116a8575f600385925092509250611749565b5f6001888888886040515f81526020016040526040516116cb94939291906123c1565b6020604051602081039080840390855afa1580156116eb573d5f803e3d5ffd5b5050506020604051035190505f73ffffffffffffffffffffffffffffffffffffffff168173ffffffffffffffffffffffffffffffffffffffff160361173c575f60015f801b93509350935050611749565b805f805f1b935093509350505b9450945094915050565b5f8060ff835f1c169050601f811115611798576040517fb3512b0c00000000000000000000000000000000000000000000000000000000815260040160405180910390fd5b80915050919050565b5f819050919050565b6117b3816117a1565b82525050565b5f6020820190506117cc5f8301846117aa565b92915050565b5f80fd5b5f80fd5b6117e3816117a1565b81146117ed575f80fd5b50565b5f813590506117fe816117da565b92915050565b5f60208284031215611819576118186117d2565b5b5f611826848285016117f0565b91505092915050565b5f81519050919050565b5f82825260208201905092915050565b5f5b8381101561186657808201518184015260208101905061184b565b5f8484015250505050565b5f601f19601f8301169050919050565b5f61188b8261182f565b6118958185611839565b93506118a5818560208601611849565b6118ae81611871565b840191505092915050565b5f6020820190508181035f8301526118d18184611881565b905092915050565b5f73ffffffffffffffffffffffffffffffffffffffff82169050919050565b5f611902826118d9565b9050919050565b611912816118f8565b811461191c575f80fd5b50565b5f8135905061192d81611909565b92915050565b5f8060408385031215611949576119486117d2565b5b5f611956858286016117f0565b92505060206119678582860161191f565b9150509250929050565b5f8115159050919050565b61198581611971565b82525050565b5f60208201905061199e5f83018461197c565b92915050565b5f7fff0000000000000000000000000000000000000000000000000000000000000082169050919050565b6119d8816119a4565b82525050565b6119e7816118f8565b82525050565b5f819050919050565b6119ff816119ed565b82525050565b5f81519050919050565b5f82825260208201905092915050565b5f819050602082019050919050565b611a37816117a1565b82525050565b5f611a488383611a2e565b60208301905092915050565b5f602082019050919050565b5f611a6a82611a05565b611a748185611a0f565b9350611a7f83611a1f565b805f5b83811015611aaf578151611a968882611a3d565b9750611aa183611a54565b925050600181019050611a82565b5085935050505092915050565b5f60e082019050611acf5f83018a6119cf565b8181036020830152611ae18189611881565b90508181036040830152611af58188611881565b9050611b0460608301876117aa565b611b1160808301866119de565b611b1e60a08301856119f6565b81810360c0830152611b308184611a60565b905098975050505050505050565b5f602082019050611b515f8301846119de565b92915050565b5f80fd5b5f60a08284031215611b7057611b6f611b57565b5b81905092915050565b5f80fd5b5f80fd5b5f80fd5b5f8083601f840112611b9a57611b99611b79565b5b8235905067ffffffffffffffff811115611bb757611bb6611b7d565b5b602083019150836001820283011115611bd357611bd2611b81565b5b9250929050565b5f805f60c08486031215611bf157611bf06117d2565b5b5f611bfe86828701611b5b565b93505060a084013567ffffffffffffffff811115611c1f57611c1e6117d6565b5b611c2b86828701611b85565b92509250509250925092565b5f60a08284031215611c4c57611c4b6117d2565b5b5f611c5984828501611b5b565b91505092915050565b5f602082019050611c755f8301846119f6565b92915050565b5f60208284031215611c9057611c8f6117d2565b5b5f611c9d8482850161191f565b91505092915050565b7f6261642063616e646964617465496400000000000000000000000000000000005f82015250565b5f611cda600f83611839565b9150611ce582611ca6565b602082019050919050565b5f6020820190508181035f830152611d0781611cce565b9050919050565b7f4e487b71000000000000000000000000000000000000000000000000000000005f52603260045260245ffd5b7f4e487b71000000000000000000000000000000000000000000000000000000005f52602260045260245ffd5b5f6002820490506001821680611d7f57607f821691505b602082108103611d9257611d91611d3b565b5b50919050565b7f4e487b71000000000000000000000000000000000000000000000000000000005f52604160045260245ffd5b7f6e6f7420737461727465640000000000000000000000000000000000000000005f82015250565b5f611df9600b83611839565b9150611e0482611dc5565b602082019050919050565b5f6020820190508181035f830152611e2681611ded565b9050919050565b7f656e6465640000000000000000000000000000000000000000000000000000005f82015250565b5f611e61600583611839565b9150611e6c82611e2d565b602082019050919050565b5f6020820190508181035f830152611e8e81611e55565b9050919050565b7f73696720657870697265640000000000000000000000000000000000000000005f82015250565b5f611ec9600b83611839565b9150611ed482611e95565b602082019050919050565b5f6020820190508181035f830152611ef681611ebd565b9050919050565b7f77726f6e6720656c656374696f6e4964000000000000000000000000000000005f82015250565b5f611f31601083611839565b9150611f3c82611efd565b602082019050919050565b5f6020820190508181035f830152611f5e81611f25565b9050919050565b7f626164206e6f6e636500000000000000000000000000000000000000000000005f82015250565b5f611f99600983611839565b9150611fa482611f65565b602082019050919050565b5f6020820190508181035f830152611fc681611f8d565b9050919050565b5f60c082019050611fe05f8301896119f6565b611fed60208301886119de565b611ffa60408301876117aa565b61200760608301866117aa565b61201460808301856117aa565b61202160a08301846117aa565b979650505050505050565b7f696e76616c6964207369670000000000000000000000000000000000000000005f82015250565b5f612060600b83611839565b915061206b8261202c565b602082019050919050565b5f6020820190508181035f83015261208d81612054565b9050919050565b7f616c726561647920766f746564000000000000000000000000000000000000005f82015250565b5f6120c8600d83611839565b91506120d382612094565b602082019050919050565b5f6020820190508181035f8301526120f5816120bc565b9050919050565b7f4e487b71000000000000000000000000000000000000000000000000000000005f52601160045260245ffd5b5f612133826117a1565b915061213e836117a1565b9250828201905080821115612156576121556120fc565b5b92915050565b7f616c72656164792066696e616c697a65640000000000000000000000000000005f82015250565b5f612190601183611839565b915061219b8261215c565b602082019050919050565b5f6020820190508181035f8301526121bd81612184565b9050919050565b7f766f74696e67456e64206d75737420626520616674657220766f74696e6753745f8201527f6172740000000000000000000000000000000000000000000000000000000000602082015250565b5f61221e602383611839565b9150612229826121c4565b604082019050919050565b5f6020820190508181035f83015261224b81612212565b9050919050565b5f6040820190506122655f8301856117aa565b61227260208301846117aa565b9392505050565b7f766f74696e67206e6f7420656e646564000000000000000000000000000000005f82015250565b5f6122ad601083611839565b91506122b882612279565b602082019050919050565b5f6020820190508181035f8301526122da816122a1565b9050919050565b5f6122eb826117a1565b91507fffffffffffffffffffffffffffffffffffffffffffffffffffffffffffffffff820361231d5761231c6120fc565b5b600182019050919050565b7f4e487b71000000000000000000000000000000000000000000000000000000005f52602160045260245ffd5b5f60a0820190506123685f8301886119f6565b61237560208301876119f6565b61238260408301866119f6565b61238f60608301856117aa565b61239c60808301846119de565b9695505050505050565b5f60ff82169050919050565b6123bb816123a6565b82525050565b5f6080820190506123d45f8301876119f6565b6123e160208301866123b2565b6123ee60408301856119f6565b6123fb60608301846119f6565b9594505050505056fea26469706673582212205b99fbd175b237c2ec7cb698ea5820fad380c685c3bc8a136ec86ca1ff06bbb364736f6c63430008140033","linkReferences":{}},"methodIdentifiers":{"candidateIdToVotes(uint256)":"8c36ba2b","candidateName(uint256)":"30006281","candidatesLength()":"773b7f65","eip712Domain()":"84b0196e","electionId()":"051364d4","electionName()":"85e8e7a7","finalizeWinner()":"ccd0ce0c","finalized()":"b3f05b97","hasVotedForElection(uint256,address)":"3195de15","hashVote((address,uint256,uint256,uint256,uint256))":"d7fae4fa","owner()":"8da5cb5b","renounceOwnership()":"715018a6","setVotingEnd(uint256)":"abff8b24","submitVote((address,uint256,uint256,uint256,uint256),bytes)":"9b182165","transferOwnership(address)":"f2fde38b","voterNonces(address)":"d8cb076b","votingEnd()":"85a38635","votingStart()":"101158af","winningCandidateId()":"1eb85538"},"id":0}