{"abi":[{"type":"constructor","inputs":[],"stateMutability":"nonpayable"},{"type":"function","name":"UPGRADE_INTERFACE_VERSION","inputs":[],"outputs":[{"name":"","type":"string","internalType":"string"}],"stateMutability":"view"},{"type":"function","name":"candidateIdToVotes","inputs":[{"name":"","type":"uint256","internalType":"uint256"}],"outputs":[{"name":"","type":"uint256","internalType":"uint256"}],"stateMutability":"view"},{"type":"function","name":"candidateName","inputs":[{"name":"candidateId","type":"uint256","internalType":"uint256"}],"outputs":[{"name":"","type":"string","internalType":"string"}],"stateMutability":"view"},{"type":"function","name":"candidatesLength","inputs":[],"outputs":[{"name":"","type":"uint256","internalType":"uint256"}],"stateMutability":"view"},{"type":"function","name":"eip712Domain","inputs":[],"outputs":[{"name":"fields","type":"bytes1","internalType":"bytes1"},{"name":"name","type":"string","internalType":"string"},{"name":"version","type":"string","internalType":"string"},{"name":"chainId","type":"uint256","internalType":"uint256"},{"name":"verifyingContract","type":"address","internalType":"address"},{"name":"salt","type":"bytes32","internalType":"bytes32"},{"name":"extensions","type":"uint256[]","internalType":"uint256[]"}],"stateMutability":"view"},{"type":"function","name":"electionId","inputs":[],"outputs":[{"name":"","type":"uint256","internalType":"uint256"}],"stateMutability":"view"},{"type":"function","name":"electionName","inputs":[],"outputs":[{"name":"","type":"string","internalType":"string"}],"stateMutability":"view"},{"type":"function","name":"finalizeWinner","inputs":[],"outputs":[],"stateMutability":"nonpayable"},{"type":"function","name":"finalized","inputs":[],"outputs":[{"name":"","type":"bool","internalType":"bool"}],"stateMutability":"view"},{"type":"function","name":"hasVotedForElection","inputs":[{"name":"","type":"uint256","internalType":"uint256"},{"name":"","type":"address","internalType":"address"}],"outputs":[{"name":"","type":"bool","internalType":"bool"}],"stateMutability":"view"},{"type":"function","name":"hashVote","inputs":[{"name":"vote","type":"tuple","internalType":"struct EIP712Voting.Vote","components":[{"name":"voter","type":"address","internalType":"address"},{"name":"candidateId","type":"uint256","internalType":"uint256"},{"name":"electionId","type":"uint256","internalType":"uint256"},{"name":"nonce","type":"uint256","internalType":"uint256"},{"name":"deadline","type":"uint256","internalType":"uint256"}]}],"outputs":[{"name":"","type":"bytes32","internalType":"bytes32"}],"stateMutability":"view"},{"type":"function","name":"initialize","inputs":[{"name":"electionName_","type":"string","internalType":"string"},{"name":"candidateNames","type":"string[]","internalType":"string[]"},{"name":"votingDurationSeconds","type":"uint256","internalType":"uint256"},{"name":"electionId_","type":"uint256","internalType":"uint256"},{"name":"initialOwner","type":"address","internalType":"address"}],"outputs":[],"stateMutability":"nonpayable"},{"type":"function","name":"owner","inputs":[],"outputs":[{"name":"","type":"address","internalType":"address"}],"stateMutability":"view"},{"type":"function","name":"proxiableUUID","inputs":[],"outputs":[{"name":"","type":"bytes32","internalType":"bytes32"}],"stateMutability":"view"},{"type":"function","name":"renounceOwnership","inputs":[],"outputs":[],"stateMutability":"nonpayable"},{"type":"function","name":"setVotingEnd","inputs":[{"name":"newVotingEnd","type":"uint256","internalType":"uint256"}],"outputs":[],"stateMutability":"nonpayable"},{"type":"function","name":"submitVote","inputs":[{"name":"vote","type":"tuple","internalType":"struct EIP712Voting.Vote","components":[{"name":"voter","type":"address","internalType":"address"},{"name":"candidateId","type":"uint256","internalType":"uint256"},{"name":"electionId","type":"uint256","internalType":"uint256"},{"name":"nonce","type":"uint256","internalType":"uint256"},{"name":"deadline","type":"uint256","internalType":"uint256"}]},{"name":"signature","type":"bytes","internalType":"bytes"}],"outputs":[],"stateMutability":"nonpayable"},{"type":"function","name":"transferOwnership","inputs":[{"name":"newOwner","type":"address","internalType":"address"}],"outputs":[],"stateMutability":"nonpayable"},{"type":"function","name":"upgradeToAndCall","inputs":[{"name":"newImplementation","type":"address","internalType":"address"},{"name":"data","type":"bytes","internalType":"bytes"}],"outputs":[],"stateMutability":"payable"},{"type":"function","name":"voterNonces","inputs":[{"name":"","type":"address","internalType":"address"}],"outputs":[{"name":"","type":"uint256","internalType":"uint256"}],"stateMutability":"view"},{"type":"function","name":"votingEnd","inputs":[],"outputs":[{"name":"","type":"uint256","internalType":"uint256"}],"stateMutability":"view"},{"type":"function","name":"votingStart","inputs":[],"outputs":[{"name":"","type":"uint256","internalType":"uint256"}],"stateMutability":"view"},{"type":"function","name":"winningCandidateId","inputs":[],"outputs":[{"name":"","type":"uint256","internalType":"uint256"}],"stateMutability":"view"},{"type":"event","name":"EIP712DomainChanged","inputs":[],"anonymous":false},{"type":"event","name":"Initialized","inputs":[{"name":"version","type":"uint64","indexed":false,"internalType":"uint64"}],"anonymous":false},{"type":"event","name":"OwnershipTransferred","inputs":[{"name":"previousOwner","type":"address","indexed":true,"internalType":"address"},{"name":"newOwner","type":"address","indexed":true,"internalType":"address"}],"anonymous":false},{"type":"event","name":"Upgraded","inputs":[{"name":"implementation","type":"address","indexed":true,"internalType":"address"}],"anonymous":false},{"type":"event","name":"VoteAccepted","inputs":[{"name":"voter","type":"address","indexed":true,"internalType":"address"},{"name":"electionId","type":"uint256","indexed":true,"internalType":"uint256"},{"name":"candidateId","type":"uint256","indexed":true,"internalType":"uint256"}],"anonymous":false},{"type":"event","name":"VotingEndUpdated","inputs":[{"name":"oldVotingEnd","type":"uint256","indexed":false,"internalType":"uint256"},{"name":"newVotingEnd","type":"uint256","indexed":false,"internalType":"uint256"}],"anonymous":false},{"type":"event","name":"WinnerFinalized","inputs":[{"name":"electionId","type":"uint256","indexed":true,"internalType":"uint256"},{"name":"winningCandidateId","type":"uint256","indexed":true,"internalType":"uint256"},{"name":"votes","type":"uint256","indexed":false,"internalType":"uint256"}],"anonymous":false},{"type":"error","name":"AddressEmptyCode","inputs":[{"name":"target","type":"address","internalType":"address"}]},{"type":"error","name":"ECDSAInvalidSignature","inputs":[]},{"type":"error","name":"ECDSAInvalidSignatureLength","inputs":[{"name":"length","type":"uint256","internalType":"uint256"}]},{"type":"error","name":"ECDSAInvalidSignatureS","inputs":[{"name":"s","type":"bytes32","internalType":"bytes32"}]},{"type":"error","name":"ERC1967InvalidImplementation","inputs":[{"name":"implementation","type":"address","internalType":"address"}]},{"type":"error","name":"ERC1967NonPayable","inputs":[]},{"type":"error","name":"FailedCall","inputs":[]},{"type":"error","name":"InvalidInitialization","inputs":[]},{"type":"error","name":"NotInitializing","inputs":[]},{"type":"error","name":"OwnableInvalidOwner","inputs":[{"name":"owner","type":"address","internalType":"address"}]},{"type":"error","name":"OwnableUnauthorizedAccount","inputs":[{"name":"account","type":"address","internalType":"address"}]},{"type":"error","name":"UUPSUnauthorizedCallContext","inputs":[]},{"type":"error","name":"UUPSUnsupportedProxiableUUID","inputs":[{"name":"slot","type":"bytes32","internalType":"bytes32"}]}],"bytecode":{"object":"0x60a06040523073ffffffffffffffffffffffffffffffffffffffff1660809073ffffffffffffffffffffffffffffffffffffffff1681525034801562000043575f80fd5b50620000546200005a60201b60201c565b620001e1565b5f6200006b6200015e60201b60201c565b9050805f0160089054906101000a900460ff1615620000b6576040517ff92ee8a900000000000000000000000000000000000000000000000000000000815260040160405180910390fd5b67ffffffffffffffff8016815f015f9054906101000a900467ffffffffffffffff1667ffffffffffffffff16146200015b5767ffffffffffffffff815f015f6101000a81548167ffffffffffffffff021916908367ffffffffffffffff1602179055507fc7f505b2f371ae2175ee4913f4499e1f2633a7b5936321eed1cdaeb6115181d267ffffffffffffffff604051620001529190620001c6565b60405180910390a15b50565b5f80620001706200017960201b60201c565b90508091505090565b5f7ff0c57e16840df040f15088dc2f81fe391c3923bec73e23a9662efc9c229c6a005f1b905090565b5f67ffffffffffffffff82169050919050565b620001c081620001a2565b82525050565b5f602082019050620001db5f830184620001b5565b92915050565b608051613939620002085f395f81816114aa015281816114ff01526116b901526139395ff3fe60806040526004361061013f575f3560e01c806385e8e7a7116100b5578063b3f05b971161006e578063b3f05b9714610423578063ccd0ce0c1461044d578063d7fae4fa14610463578063d8cb076b1461049f578063f2fde38b146104db578063f9b08b0c146105035761013f565b806385e8e7a7146103195780638c36ba2b146103435780638da5cb5b1461037f5780639b182165146103a9578063abff8b24146103d1578063ad3cb1cc146103f95761013f565b80634f1ef286116101075780634f1ef2861461023957806352d1902d14610255578063715018a61461027f578063773b7f651461029557806384b0196e146102bf57806385a38635146102ef5761013f565b8063051364d414610143578063101158af1461016d5780631eb855381461019757806330006281146101c15780633195de15146101fd575b5f80fd5b34801561014e575f80fd5b5061015761052b565b6040516101649190612456565b60405180910390f35b348015610178575f80fd5b50610181610531565b60405161018e9190612456565b60405180910390f35b3480156101a2575f80fd5b506101ab610537565b6040516101b89190612456565b60405180910390f35b3480156101cc575f80fd5b506101e760048036038101906101e291906124aa565b61053d565b6040516101f4919061255f565b60405180910390f35b348015610208575f80fd5b50610223600480360381019061021e91906125d9565b610630565b6040516102309190612631565b60405180910390f35b610253600480360381019061024e9190612776565b61065a565b005b348015610260575f80fd5b50610269610679565b60405161027691906127e8565b60405180910390f35b34801561028a575f80fd5b506102936106aa565b005b3480156102a0575f80fd5b506102a96106bd565b6040516102b69190612456565b60405180910390f35b3480156102ca575f80fd5b506102d36106c9565b6040516102e69796959493929190612901565b60405180910390f35b3480156102fa575f80fd5b506103036107d2565b6040516103109190612456565b60405180910390f35b348015610324575f80fd5b5061032d6107d8565b60405161033a919061255f565b60405180910390f35b34801561034e575f80fd5b50610369600480360381019061036491906124aa565b610863565b6040516103769190612456565b60405180910390f35b34801561038a575f80fd5b50610393610878565b6040516103a09190612983565b60405180910390f35b3480156103b4575f80fd5b506103cf60048036038101906103ca9190612a1b565b6108ad565b005b3480156103dc575f80fd5b506103f760048036038101906103f291906124aa565b610e0d565b005b348015610404575f80fd5b5061040d610ef2565b60405161041a919061255f565b60405180910390f35b34801561042e575f80fd5b50610437610f2b565b6040516104449190612631565b60405180910390f35b348015610458575f80fd5b50610461610f3d565b005b34801561046e575f80fd5b5061048960048036038101906104849190612a78565b611081565b60405161049691906127e8565b60405180910390f35b3480156104aa575f80fd5b506104c560048036038101906104c09190612aa3565b611108565b6040516104d29190612456565b60405180910390f35b3480156104e6575f80fd5b5061050160048036038101906104fc9190612aa3565b61111d565b005b34801561050e575f80fd5b5061052960048036038101906105249190612c4a565b6111a1565b005b60045481565b60025481565b60095481565b60606001805490508210610586576040517f08c379a000000000000000000000000000000000000000000000000000000000815260040161057d90612d43565b60405180910390fd5b6001828154811061059a57610599612d61565b5b905f5260205f200180546105ad90612dbb565b80601f01602080910402602001604051908101604052809291908181526020018280546105d990612dbb565b80156106245780601f106105fb57610100808354040283529160200191610624565b820191905f5260205f20905b81548152906001019060200180831161060757829003601f168201915b50505050509050919050565b6006602052815f5260405f20602052805f5260405f205f915091509054906101000a900460ff1681565b6106626114a8565b61066b8261158e565b6106758282611599565b5050565b5f6106826116b7565b7f360894a13ba1a3210667c828492db98dca3e2076cc3735a920a3ca505d382bbc5f1b905090565b6106b261173e565b6106bb5f6117c5565b565b5f600180549050905090565b5f6060805f805f60605f6106db611896565b90505f801b815f01541480156106f657505f801b8160010154145b610735576040517f08c379a000000000000000000000000000000000000000000000000000000000815260040161072c90612e35565b60405180910390fd5b61073d6118bd565b61074561195b565b46305f801b5f67ffffffffffffffff81111561076457610763612652565b5b6040519080825280602002602001820160405280156107925781602001602082028036833780820191505090505b507f0f0000000000000000000000000000000000000000000000000000000000000095949392919097509750975097509750975097505090919293949596565b60035481565b5f80546107e490612dbb565b80601f016020809104026020016040519081016040528092919081815260200182805461081090612dbb565b801561085b5780601f106108325761010080835404028352916020019161085b565b820191905f5260205f20905b81548152906001019060200180831161083e57829003601f168201915b505050505081565b6005602052805f5260405f205f915090505481565b5f806108826119f9565b9050805f015f9054906101000a900473ffffffffffffffffffffffffffffffffffffffff1691505090565b6002544210156108f2576040517f08c379a00000000000000000000000000000000000000000000000000000000081526004016108e990612e9d565b60405180910390fd5b600354421115610937576040517f08c379a000000000000000000000000000000000000000000000000000000000815260040161092e90612f05565b60405180910390fd5b428360800135101561097e576040517f08c379a000000000000000000000000000000000000000000000000000000000815260040161097590612f6d565b60405180910390fd5b6004548360400135146109c6576040517f08c379a00000000000000000000000000000000000000000000000000000000081526004016109bd90612fd5565b60405180910390fd5b600180549050836020013510610a11576040517f08c379a0000000000000000000000000000000000000000000000000000000008152600401610a0890612d43565b60405180910390fd5b60075f845f016020810190610a269190612aa3565b73ffffffffffffffffffffffffffffffffffffffff1673ffffffffffffffffffffffffffffffffffffffff1681526020019081526020015f2054836060013514610aa5576040517f08c379a0000000000000000000000000000000000000000000000000000000008152600401610a9c9061303d565b60405180910390fd5b5f7f58556a46fbcf81174bc859fc9a635107e4c22f94dc76326a01a13d3a55b2449b845f016020810190610ad99190612aa3565b8560200135866040013587606001358860800135604051602001610b029695949392919061305b565b6040516020818303038152906040528051906020012090505f610b2482611a20565b90505f610b748286868080601f0160208091040260200160405190810160405280939291908181526020018383808284375f81840152601f19601f82011690508083019250505050505050611a39565b9050855f016020810190610b889190612aa3565b73ffffffffffffffffffffffffffffffffffffffff168173ffffffffffffffffffffffffffffffffffffffff1614610bf5576040517f08c379a0000000000000000000000000000000000000000000000000000000008152600401610bec90613104565b60405180910390fd5b60065f60045481526020019081526020015f205f875f016020810190610c1b9190612aa3565b73ffffffffffffffffffffffffffffffffffffffff1673ffffffffffffffffffffffffffffffffffffffff1681526020019081526020015f205f9054906101000a900460ff1615610ca1576040517f08c379a0000000000000000000000000000000000000000000000000000000008152600401610c989061316c565b60405180910390fd5b600160065f60045481526020019081526020015f205f885f016020810190610cc99190612aa3565b73ffffffffffffffffffffffffffffffffffffffff1673ffffffffffffffffffffffffffffffffffffffff1681526020019081526020015f205f6101000a81548160ff021916908315150217905550600160055f886020013581526020019081526020015f205f828254610d3d91906131b7565b9250508190555060018660600135610d5591906131b7565b60075f885f016020810190610d6a9190612aa3565b73ffffffffffffffffffffffffffffffffffffffff1673ffffffffffffffffffffffffffffffffffffffff1681526020019081526020015f208190555085602001358660400135875f016020810190610dc39190612aa3565b73ffffffffffffffffffffffffffffffffffffffff167f8fd2cad44d673d9c0029b36de18f0bb5cce9cf20f9aea743d3cfc000e9fee9ad60405160405180910390a4505050505050565b610e1561173e565b60085f9054906101000a900460ff1615610e64576040517f08c379a0000000000000000000000000000000000000000000000000000000008152600401610e5b90613234565b60405180910390fd5b6002548111610ea8576040517f08c379a0000000000000000000000000000000000000000000000000000000008152600401610e9f906132c2565b60405180910390fd5b5f6003549050816003819055507f561e3cc9921f6dd8405f4032e08d8b4e297aea622f79dddd89f3e415826bd65a8183604051610ee69291906132e0565b60405180910390a15050565b6040518060400160405280600581526020017f352e302e3000000000000000000000000000000000000000000000000000000081525081565b60085f9054906101000a900460ff1681565b610f4561173e565b6003544211610f89576040517f08c379a0000000000000000000000000000000000000000000000000000000008152600401610f8090613351565b60405180910390fd5b60085f9054906101000a900460ff1615610fd8576040517f08c379a0000000000000000000000000000000000000000000000000000000008152600401610fcf90613234565b60405180910390fd5b5f60018054905090505f805f5b8381101561101f575f60055f8381526020019081526020015f2054905082811115611011578092508193505b508080600101915050610fe5565b5081600981905550600160085f6101000a81548160ff021916908315150217905550816004547f051f919732f5330240073fab38f0d82b290cf7342adfa5bc65730dfc1323ea04836040516110749190612456565b60405180910390a3505050565b5f807f58556a46fbcf81174bc859fc9a635107e4c22f94dc76326a01a13d3a55b2449b835f0160208101906110b69190612aa3565b84602001358560400135866060013587608001356040516020016110df9695949392919061305b565b60405160208183030381529060405280519060200120905061110081611a20565b915050919050565b6007602052805f5260405f205f915090505481565b61112561173e565b5f73ffffffffffffffffffffffffffffffffffffffff168173ffffffffffffffffffffffffffffffffffffffff1603611195575f6040517f1e4fbdf700000000000000000000000000000000000000000000000000000000815260040161118c9190612983565b60405180910390fd5b61119e816117c5565b50565b5f6111aa611a63565b90505f815f0160089054906101000a900460ff161590505f825f015f9054906101000a900467ffffffffffffffff1690505f808267ffffffffffffffff161480156111f25750825b90505f60018367ffffffffffffffff1614801561122557505f3073ffffffffffffffffffffffffffffffffffffffff163b145b905081158015611233575080155b1561126a576040517ff92ee8a900000000000000000000000000000000000000000000000000000000815260040160405180910390fd5b6001855f015f6101000a81548167ffffffffffffffff021916908367ffffffffffffffff16021790555083156112b7576001855f0160086101000a81548160ff0219169083151502179055505b6002895110156112fc576040517f08c379a00000000000000000000000000000000000000000000000000000000081526004016112f3906133b9565b60405180910390fd5b5f881161133e576040517f08c379a000000000000000000000000000000000000000000000000000000000815260040161133590613421565b60405180910390fd5b5f73ffffffffffffffffffffffffffffffffffffffff168673ffffffffffffffffffffffffffffffffffffffff16036113ac576040517f08c379a00000000000000000000000000000000000000000000000000000000081526004016113a390613489565b60405180910390fd5b6113eb8a6040518060400160405280600181526020017f3100000000000000000000000000000000000000000000000000000000000000815250611a76565b6113f486611a8c565b6113fc611aa0565b895f908161140a9190613644565b50886001908051906020019061142192919061236c565b5042600281905550874261143591906131b7565b60038190555086600481905550831561149c575f855f0160086101000a81548160ff0219169083151502179055507fc7f505b2f371ae2175ee4913f4499e1f2633a7b5936321eed1cdaeb6115181d26001604051611493919061375f565b60405180910390a15b50505050505050505050565b7f000000000000000000000000000000000000000000000000000000000000000073ffffffffffffffffffffffffffffffffffffffff163073ffffffffffffffffffffffffffffffffffffffff16148061155557507f000000000000000000000000000000000000000000000000000000000000000073ffffffffffffffffffffffffffffffffffffffff1661153c611aaa565b73ffffffffffffffffffffffffffffffffffffffff1614155b1561158c576040517fe07c8dba00000000000000000000000000000000000000000000000000000000815260040160405180910390fd5b565b61159661173e565b50565b8173ffffffffffffffffffffffffffffffffffffffff166352d1902d6040518163ffffffff1660e01b8152600401602060405180830381865afa92505050801561160157506040513d601f19601f820116820180604052508101906115fe91906137a2565b60015b61164257816040517f4c9c8ce30000000000000000000000000000000000000000000000000000000081526004016116399190612983565b60405180910390fd5b7f360894a13ba1a3210667c828492db98dca3e2076cc3735a920a3ca505d382bbc5f1b81146116a857806040517faa1d49a400000000000000000000000000000000000000000000000000000000815260040161169f91906127e8565b60405180910390fd5b6116b28383611afd565b505050565b7f000000000000000000000000000000000000000000000000000000000000000073ffffffffffffffffffffffffffffffffffffffff163073ffffffffffffffffffffffffffffffffffffffff161461173c576040517fe07c8dba00000000000000000000000000000000000000000000000000000000815260040160405180910390fd5b565b611746611b6f565b73ffffffffffffffffffffffffffffffffffffffff16611764610878565b73ffffffffffffffffffffffffffffffffffffffff16146117c357611787611b6f565b6040517f118cdaa70000000000000000000000000000000000000000000000000000000081526004016117ba9190612983565b60405180910390fd5b565b5f6117ce6119f9565b90505f815f015f9054906101000a900473ffffffffffffffffffffffffffffffffffffffff16905082825f015f6101000a81548173ffffffffffffffffffffffffffffffffffffffff021916908373ffffffffffffffffffffffffffffffffffffffff1602179055508273ffffffffffffffffffffffffffffffffffffffff168173ffffffffffffffffffffffffffffffffffffffff167f8be0079c531659141344cd1fd0a4f28419497f9722a3daafe3b4186f6b6457e060405160405180910390a3505050565b5f7fa16a46d94261c7517cc8ff89f61c0ce93598e3c849801011dee649a6a557d100905090565b60605f6118c8611896565b90508060020180546118d990612dbb565b80601f016020809104026020016040519081016040528092919081815260200182805461190590612dbb565b80156119505780601f1061192757610100808354040283529160200191611950565b820191905f5260205f20905b81548152906001019060200180831161193357829003601f168201915b505050505091505090565b60605f611966611896565b905080600301805461197790612dbb565b80601f01602080910402602001604051908101604052809291908181526020018280546119a390612dbb565b80156119ee5780601f106119c5576101008083540402835291602001916119ee565b820191905f5260205f20905b8154815290600101906020018083116119d157829003601f168201915b505050505091505090565b5f7f9016d09d72d40fdae2fd8ceac6b6234c7706214fd39c1cd1e609a0528c199300905090565b5f611a32611a2c611b76565b83611b84565b9050919050565b5f805f80611a478686611bc4565b925092509250611a578282611c19565b82935050505092915050565b5f80611a6d611d7b565b90508091505090565b611a7e611da4565b611a888282611de4565b5050565b611a94611da4565b611a9d81611e35565b50565b611aa8611da4565b565b5f611ad67f360894a13ba1a3210667c828492db98dca3e2076cc3735a920a3ca505d382bbc5f1b611eb9565b5f015f9054906101000a900473ffffffffffffffffffffffffffffffffffffffff16905090565b611b0682611ec2565b8173ffffffffffffffffffffffffffffffffffffffff167fbc7cd75a20ee27fd9adebab32041f755214dbc6bffa90cc0225b39da2e5c2d3b60405160405180910390a25f81511115611b6257611b5c8282611f8b565b50611b6b565b611b6a61200b565b5b5050565b5f33905090565b5f611b7f612047565b905090565b5f6040517f190100000000000000000000000000000000000000000000000000000000000081528360028201528260228201526042812091505092915050565b5f805f6041845103611c04575f805f602087015192506040870151915060608701515f1a9050611bf6888285856120aa565b955095509550505050611c12565b5f600285515f1b9250925092505b9250925092565b5f6003811115611c2c57611c2b6137cd565b5b826003811115611c3f57611c3e6137cd565b5b0315611d775760016003811115611c5957611c586137cd565b5b826003811115611c6c57611c6b6137cd565b5b03611ca3576040517ff645eedf00000000000000000000000000000000000000000000000000000000815260040160405180910390fd5b60026003811115611cb757611cb66137cd565b5b826003811115611cca57611cc96137cd565b5b03611d0e57805f1c6040517ffce698f7000000000000000000000000000000000000000000000000000000008152600401611d059190612456565b60405180910390fd5b600380811115611d2157611d206137cd565b5b826003811115611d3457611d336137cd565b5b03611d7657806040517fd78bce0c000000000000000000000000000000000000000000000000000000008152600401611d6d91906127e8565b60405180910390fd5b5b5050565b5f7ff0c57e16840df040f15088dc2f81fe391c3923bec73e23a9662efc9c229c6a005f1b905090565b611dac612191565b611de2576040517fd7e6bcf800000000000000000000000000000000000000000000000000000000815260040160405180910390fd5b565b611dec611da4565b5f611df5611896565b905082816002019081611e089190613644565b5081816003019081611e1a9190613644565b505f801b815f01819055505f801b8160010181905550505050565b611e3d611da4565b5f73ffffffffffffffffffffffffffffffffffffffff168173ffffffffffffffffffffffffffffffffffffffff1603611ead575f6040517f1e4fbdf7000000000000000000000000000000000000000000000000000000008152600401611ea49190612983565b60405180910390fd5b611eb6816117c5565b50565b5f819050919050565b5f8173ffffffffffffffffffffffffffffffffffffffff163b03611f1d57806040517f4c9c8ce3000000000000000000000000000000000000000000000000000000008152600401611f149190612983565b60405180910390fd5b80611f497f360894a13ba1a3210667c828492db98dca3e2076cc3735a920a3ca505d382bbc5f1b611eb9565b5f015f6101000a81548173ffffffffffffffffffffffffffffffffffffffff021916908373ffffffffffffffffffffffffffffffffffffffff16021790555050565b60605f808473ffffffffffffffffffffffffffffffffffffffff1684604051611fb4919061383e565b5f60405180830381855af49150503d805f8114611fec576040519150601f19603f3d011682016040523d82523d5f602084013e611ff1565b606091505b50915091506120018583836121af565b9250505092915050565b5f341115612045576040517fb398979f00000000000000000000000000000000000000000000000000000000815260040160405180910390fd5b565b5f7f8b73c3c69bb8fe3d512ecc4cf759cc79239f7b179b0ffacaa9a75d522b39400f61207161223c565b6120796122b2565b463060405160200161208f959493929190613854565b60405160208183030381529060405280519060200120905090565b5f805f7f7fffffffffffffffffffffffffffffff5d576e7357a4501ddfe92f46681b20a0845f1c11156120e6575f600385925092509250612187565b5f6001888888886040515f815260200160405260405161210994939291906138c0565b6020604051602081039080840390855afa158015612129573d5f803e3d5ffd5b5050506020604051035190505f73ffffffffffffffffffffffffffffffffffffffff168173ffffffffffffffffffffffffffffffffffffffff160361217a575f60015f801b93509350935050612187565b805f805f1b935093509350505b9450945094915050565b5f61219a611a63565b5f0160089054906101000a900460ff16905090565b6060826121c4576121bf82612329565b612234565b5f82511480156121ea57505f8473ffffffffffffffffffffffffffffffffffffffff163b145b1561222c57836040517f9996b3150000000000000000000000000000000000000000000000000000000081526004016122239190612983565b60405180910390fd5b819050612235565b5b9392505050565b5f80612246611896565b90505f6122516118bd565b90505f8151111561226d578080519060200120925050506122af565b5f825f015490505f801b8114612288578093505050506122af565b7fc5d2460186f7233c927e7db2dcc703c0e500b653ca82273b7bfad8045d85a47093505050505b90565b5f806122bc611896565b90505f6122c761195b565b90505f815111156122e357808051906020012092505050612326565b5f826001015490505f801b81146122ff57809350505050612326565b7fc5d2460186f7233c927e7db2dcc703c0e500b653ca82273b7bfad8045d85a47093505050505b90565b5f8151111561233a57805160208201fd5b6040517fd6bda27500000000000000000000000000000000000000000000000000000000815260040160405180910390fd5b828054828255905f5260205f209081019282156123b2579160200282015b828111156123b15782518290816123a19190613644565b509160200191906001019061238a565b5b5090506123bf91906123c3565b5090565b5b808211156123e2575f81816123d991906123e6565b506001016123c4565b5090565b5080546123f290612dbb565b5f825580601f106124035750612420565b601f0160209004905f5260205f209081019061241f9190612423565b5b50565b5b8082111561243a575f815f905550600101612424565b5090565b5f819050919050565b6124508161243e565b82525050565b5f6020820190506124695f830184612447565b92915050565b5f604051905090565b5f80fd5b5f80fd5b6124898161243e565b8114612493575f80fd5b50565b5f813590506124a481612480565b92915050565b5f602082840312156124bf576124be612478565b5b5f6124cc84828501612496565b91505092915050565b5f81519050919050565b5f82825260208201905092915050565b5f5b8381101561250c5780820151818401526020810190506124f1565b5f8484015250505050565b5f601f19601f8301169050919050565b5f612531826124d5565b61253b81856124df565b935061254b8185602086016124ef565b61255481612517565b840191505092915050565b5f6020820190508181035f8301526125778184612527565b905092915050565b5f73ffffffffffffffffffffffffffffffffffffffff82169050919050565b5f6125a88261257f565b9050919050565b6125b88161259e565b81146125c2575f80fd5b50565b5f813590506125d3816125af565b92915050565b5f80604083850312156125ef576125ee612478565b5b5f6125fc85828601612496565b925050602061260d858286016125c5565b9150509250929050565b5f8115159050919050565b61262b81612617565b82525050565b5f6020820190506126445f830184612622565b92915050565b5f80fd5b5f80fd5b7f4e487b71000000000000000000000000000000000000000000000000000000005f52604160045260245ffd5b61268882612517565b810181811067ffffffffffffffff821117156126a7576126a6612652565b5b80604052505050565b5f6126b961246f565b90506126c5828261267f565b919050565b5f67ffffffffffffffff8211156126e4576126e3612652565b5b6126ed82612517565b9050602081019050919050565b828183375f83830152505050565b5f61271a612715846126ca565b6126b0565b9050828152602081018484840111156127365761273561264e565b5b6127418482856126fa565b509392505050565b5f82601f83011261275d5761275c61264a565b5b813561276d848260208601612708565b91505092915050565b5f806040838503121561278c5761278b612478565b5b5f612799858286016125c5565b925050602083013567ffffffffffffffff8111156127ba576127b961247c565b5b6127c685828601612749565b9150509250929050565b5f819050919050565b6127e2816127d0565b82525050565b5f6020820190506127fb5f8301846127d9565b92915050565b5f7fff0000000000000000000000000000000000000000000000000000000000000082169050919050565b61283581612801565b82525050565b6128448161259e565b82525050565b5f81519050919050565b5f82825260208201905092915050565b5f819050602082019050919050565b61287c8161243e565b82525050565b5f61288d8383612873565b60208301905092915050565b5f602082019050919050565b5f6128af8261284a565b6128b98185612854565b93506128c483612864565b805f5b838110156128f45781516128db8882612882565b97506128e683612899565b9250506001810190506128c7565b5085935050505092915050565b5f60e0820190506129145f83018a61282c565b81810360208301526129268189612527565b9050818103604083015261293a8188612527565b90506129496060830187612447565b612956608083018661283b565b61296360a08301856127d9565b81810360c083015261297581846128a5565b905098975050505050505050565b5f6020820190506129965f83018461283b565b92915050565b5f80fd5b5f60a082840312156129b5576129b461299c565b5b81905092915050565b5f80fd5b5f80fd5b5f8083601f8401126129db576129da61264a565b5b8235905067ffffffffffffffff8111156129f8576129f76129be565b5b602083019150836001820283011115612a1457612a136129c2565b5b9250929050565b5f805f60c08486031215612a3257612a31612478565b5b5f612a3f868287016129a0565b93505060a084013567ffffffffffffffff811115612a6057612a5f61247c565b5b612a6c868287016129c6565b92509250509250925092565b5f60a08284031215612a8d57612a8c612478565b5b5f612a9a848285016129a0565b91505092915050565b5f60208284031215612ab857612ab7612478565b5b5f612ac5848285016125c5565b91505092915050565b5f67ffffffffffffffff821115612ae857612ae7612652565b5b612af182612517565b9050602081019050919050565b5f612b10612b0b84612ace565b6126b0565b905082815260208101848484011115612b2c57612b2b61264e565b5b612b378482856126fa565b509392505050565b5f82601f830112612b5357612b5261264a565b5b8135612b63848260208601612afe565b91505092915050565b5f67ffffffffffffffff821115612b8657612b85612652565b5b602082029050602081019050919050565b5f612ba9612ba484612b6c565b6126b0565b90508083825260208201905060208402830185811115612bcc57612bcb6129c2565b5b835b81811015612c1357803567ffffffffffffffff811115612bf157612bf061264a565b5b808601612bfe8982612b3f565b85526020850194505050602081019050612bce565b5050509392505050565b5f82601f830112612c3157612c3061264a565b5b8135612c41848260208601612b97565b91505092915050565b5f805f805f60a08688031215612c6357612c62612478565b5b5f86013567ffffffffffffffff811115612c8057612c7f61247c565b5b612c8c88828901612b3f565b955050602086013567ffffffffffffffff811115612cad57612cac61247c565b5b612cb988828901612c1d565b9450506040612cca88828901612496565b9350506060612cdb88828901612496565b9250506080612cec888289016125c5565b9150509295509295909350565b7f6261642063616e646964617465496400000000000000000000000000000000005f82015250565b5f612d2d600f836124df565b9150612d3882612cf9565b602082019050919050565b5f6020820190508181035f830152612d5a81612d21565b9050919050565b7f4e487b71000000000000000000000000000000000000000000000000000000005f52603260045260245ffd5b7f4e487b71000000000000000000000000000000000000000000000000000000005f52602260045260245ffd5b5f6002820490506001821680612dd257607f821691505b602082108103612de557612de4612d8e565b5b50919050565b7f4549503731323a20556e696e697469616c697a656400000000000000000000005f82015250565b5f612e1f6015836124df565b9150612e2a82612deb565b602082019050919050565b5f6020820190508181035f830152612e4c81612e13565b9050919050565b7f6e6f7420737461727465640000000000000000000000000000000000000000005f82015250565b5f612e87600b836124df565b9150612e9282612e53565b602082019050919050565b5f6020820190508181035f830152612eb481612e7b565b9050919050565b7f656e6465640000000000000000000000000000000000000000000000000000005f82015250565b5f612eef6005836124df565b9150612efa82612ebb565b602082019050919050565b5f6020820190508181035f830152612f1c81612ee3565b9050919050565b7f73696720657870697265640000000000000000000000000000000000000000005f82015250565b5f612f57600b836124df565b9150612f6282612f23565b602082019050919050565b5f6020820190508181035f830152612f8481612f4b565b9050919050565b7f77726f6e6720656c656374696f6e4964000000000000000000000000000000005f82015250565b5f612fbf6010836124df565b9150612fca82612f8b565b602082019050919050565b5f6020820190508181035f830152612fec81612fb3565b9050919050565b7f626164206e6f6e636500000000000000000000000000000000000000000000005f82015250565b5f6130276009836124df565b915061303282612ff3565b602082019050919050565b5f6020820190508181035f8301526130548161301b565b9050919050565b5f60c08201905061306e5f8301896127d9565b61307b602083018861283b565b6130886040830187612447565b6130956060830186612447565b6130a26080830185612447565b6130af60a0830184612447565b979650505050505050565b7f696e76616c6964207369670000000000000000000000000000000000000000005f82015250565b5f6130ee600b836124df565b91506130f9826130ba565b602082019050919050565b5f6020820190508181035f83015261311b816130e2565b9050919050565b7f616c726561647920766f746564000000000000000000000000000000000000005f82015250565b5f613156600d836124df565b915061316182613122565b602082019050919050565b5f6020820190508181035f8301526131838161314a565b9050919050565b7f4e487b71000000000000000000000000000000000000000000000000000000005f52601160045260245ffd5b5f6131c18261243e565b91506131cc8361243e565b92508282019050808211156131e4576131e361318a565b5b92915050565b7f616c72656164792066696e616c697a65640000000000000000000000000000005f82015250565b5f61321e6011836124df565b9150613229826131ea565b602082019050919050565b5f6020820190508181035f83015261324b81613212565b9050919050565b7f766f74696e67456e64206d75737420626520616674657220766f74696e6753745f8201527f6172740000000000000000000000000000000000000000000000000000000000602082015250565b5f6132ac6023836124df565b91506132b782613252565b604082019050919050565b5f6020820190508181035f8301526132d9816132a0565b9050919050565b5f6040820190506132f35f830185612447565b6133006020830184612447565b9392505050565b7f766f74696e67206e6f7420656e646564000000000000000000000000000000005f82015250565b5f61333b6010836124df565b915061334682613307565b602082019050919050565b5f6020820190508181035f8301526133688161332f565b9050919050565b7f6e656564203e3d20322063616e646964617465730000000000000000000000005f82015250565b5f6133a36014836124df565b91506133ae8261336f565b602082019050919050565b5f6020820190508181035f8301526133d081613397565b9050919050565b7f696e76616c6964206475726174696f6e000000000000000000000000000000005f82015250565b5f61340b6010836124df565b9150613416826133d7565b602082019050919050565b5f6020820190508181035f830152613438816133ff565b9050919050565b7f696e76616c6964206f776e6572000000000000000000000000000000000000005f82015250565b5f613473600d836124df565b915061347e8261343f565b602082019050919050565b5f6020820190508181035f8301526134a081613467565b9050919050565b5f819050815f5260205f209050919050565b5f6020601f8301049050919050565b5f82821b905092915050565b5f600883026135037fffffffffffffffffffffffffffffffffffffffffffffffffffffffffffffffff826134c8565b61350d86836134c8565b95508019841693508086168417925050509392505050565b5f819050919050565b5f61354861354361353e8461243e565b613525565b61243e565b9050919050565b5f819050919050565b6135618361352e565b61357561356d8261354f565b8484546134d4565b825550505050565b5f90565b61358961357d565b613594818484613558565b505050565b5b818110156135b7576135ac5f82613581565b60018101905061359a565b5050565b601f8211156135fc576135cd816134a7565b6135d6846134b9565b810160208510156135e5578190505b6135f96135f1856134b9565b830182613599565b50505b505050565b5f82821c905092915050565b5f61361c5f1984600802613601565b1980831691505092915050565b5f613634838361360d565b9150826002028217905092915050565b61364d826124d5565b67ffffffffffffffff81111561366657613665612652565b5b6136708254612dbb565b61367b8282856135bb565b5f60209050601f8311600181146136ac575f841561369a578287015190505b6136a48582613629565b86555061370b565b601f1984166136ba866134a7565b5f5b828110156136e1578489015182556001820191506020850194506020810190506136bc565b868310156136fe57848901516136fa601f89168261360d565b8355505b6001600288020188555050505b505050505050565b5f819050919050565b5f67ffffffffffffffff82169050919050565b5f61374961374461373f84613713565b613525565b61371c565b9050919050565b6137598161372f565b82525050565b5f6020820190506137725f830184613750565b92915050565b613781816127d0565b811461378b575f80fd5b50565b5f8151905061379c81613778565b92915050565b5f602082840312156137b7576137b6612478565b5b5f6137c48482850161378e565b91505092915050565b7f4e487b71000000000000000000000000000000000000000000000000000000005f52602160045260245ffd5b5f81519050919050565b5f81905092915050565b5f613818826137fa565b6138228185613804565b93506138328185602086016124ef565b80840191505092915050565b5f613849828461380e565b915081905092915050565b5f60a0820190506138675f8301886127d9565b61387460208301876127d9565b61388160408301866127d9565b61388e6060830185612447565b61389b608083018461283b565b9695505050505050565b5f60ff82169050919050565b6138ba816138a5565b82525050565b5f6080820190506138d35f8301876127d9565b6138e060208301866138b1565b6138ed60408301856127d9565b6138fa60608301846127d9565b9594505050505056fea2646970667358221220656d75c49ffe5c8e72f2d4cb7cd66cd82d9b7d420a66514e2b68c77baeb12ddc64736f6c63430008160033","linkReferences":{}},"methodIdentifiers":{"UPGRADE_INTERFACE_VERSION()":"ad3cb1cc","candidateIdToVotes(uint256)":"8c36ba2b","candidateName(uint256)":"30006281","candidatesLength()":"773b7f65","eip712Domain()":"84b0196e","electionId()":"051364d4","electionName()":"85e8e7a7","finalizeWinner()":"ccd0ce0c","finalized()":"b3f05b97","hasVotedForElection(uint256,address)":"3195de15","hashVote((address,uint256,uint256,uint256,uint256))":"d7fae4fa","initialize(string,string[],uint256,uint256,address)":"f9b08b0c","owner()":"8da5cb5b","proxiableUUID()":"52d1902d","renounceOwnership()":"715018a6","setVotingEnd(uint256)":"abff8b24","submitVote((address,uint256,uint256,uint256,uint256),bytes)":"9b182165","transferOwnership(address)":"f2fde38b","upgradeToAndCall(address,bytes)":"4f1ef286","voterNonces(address)":"d8cb076b","votingEnd()":"85a38635","votingStart()":"101158af","winningCandidateId()":"1eb85538"},"id":0}